:1000000012C024C023C022C021C020C01FC01EC0F7
:100010001DC01CC01BC01AC019C018C017C016C014
:1000200015C014C013C011241FBECFE5D4E0DEBF3D
:10003000CDBF10E0A0E6B0E0EEE0F7E002C0059032
:100040000D92A436B107D9F713D05FC3D9CF89E693
:1000500085BDBB9A089599E695BDBB9A9FE5899F9A
:10006000C001112464E670E0B8D2605663BD089503
:100070000F931F93CF93DF93C0E9D1E083E090E02B
:1000800060E070E08ED08C0183E090E061E070E091
:1000900088D00130110509F05DC0019709F05DC0FD
:1000A00083E090E064E070E041E050E0E6D088EE6C
:1000B00093E020E931E0F9013197F1F70197D9F7A1
:1000C00083E090E064E070E040E050E0D6D088EE5D
:1000D00093E020E931E0F9013197F1F70197D9F781
:1000E00082E090E069E070E041E050E0C6D088E84E
:1000F00093E120E931E0F9013197F1F70197D9F760
:1001000082E090E069E070E040E050E0B6D088E83E
:1001100093E120E931E0F9013197F1F70197D9F73F
:1001200084E090E064E070E041E050E0A6D084E03C
:1001300090E065E070E040E050E09FD088E893E117
:1001400020E931E0F9013197F1F70197D9F780E023
:1001500090E0DBD2019709F091CF83E090E064E07A
:1001600070E040E050E089D084E090E064E070E02E
:1001700040E050E082D084E090E065E070E041E053
:1001800050E07BD088E893E1FE013197F1F70197C9
:10019000D9F782E090E069E070E041E050E06DD096
:1001A0006DCF8230F9F0833018F4813031F407C01C
:1001B000833059F1843009F442C080E008956930F9
:1001C00019F41ABA89B308958AB321E030E0062EF3
:1001D00002C0220F331F0A94E2F7209528232ABB7E
:1001E00089B325C0693019F417BA86B3089587B367
:1001F00021E030E0062E02C0220F331F0A94E2F7FE
:100200002095282327BB86B312C0693019F414BA8D
:1002100083B3089584B321E030E0062E02C0220F9C
:10022000331F0A94E2F72095282324BB83B390E080
:1002300002C0959587956A95E2F7817008956930B7
:1002400019F411BA80B3089531B381E090E0062E1D
:1002500002C0880F991F0A94E2F7282F20952323C4
:1002600021BB22B3822B82BB80B390E002C0959564
:1002700087956A95E2F781700895823009F441C04C
:10028000833020F4813009F0D7C007C0833009F4EF
:100290006CC0843009F0D0C09CC06B3521F48FEF66
:1002A0008ABB4BBB0895442321F0413009F0C4C000
:1002B00014C0693021F48FEF8ABB1BBA08958AB34A
:1002C00021E030E002C0220F331F6A95E2F7822B53
:1002D0008ABB8BB32095282312C0693021F48FEF9D
:1002E0008ABB8BBB08958AB321E030E002C0220FA5
:1002F000331F6A95E2F7822B8ABB8BB3282B2BBB6B
:1003000008956B3521F48FEF87BB48BB08954423D4
:1003100021F0413009F090C014C0693021F48FEF12
:1003200087BB18BA089587B321E030E002C0220FDE
:10033000331F6A95E2F7822B87BB88B32095282369
:1003400012C0693021F48FEF87BB88BB089587B353
:1003500021E030E002C0220F331F6A95E2F7822BC2
:1003600087BB88B3282B28BB08956B3521F48FEF0A
:1003700084BB45BB0895442321F0413009F05CC0A3
:1003800014C0693021F48FEF84BB15BA089584B38B
:1003900021E030E002C0220F331F6A95E2F7822B82
:1003A00084BB85B32095282312C0693021F48FEFD8
:1003B00084BB85BB089584B321E030E002C0220FE6
:1003C000331F6A95E2F7822B84BB85B3282B25BBAC
:1003D00008956B3521F48FEF81BB42BB0895442310
:1003E00019F0413049F515C0693021F48FEF81BB18
:1003F00012BA089581B321E030E002C0220F331F0A
:100400006A95E2F7822B81BB82B32095282322BB19
:100410000895693021F48FEF81BB82BB089581B3C9
:1004200021E030E002C0220F331F6A95E2F7822BF1
:1004300081BB82B3282B22BB0895833019F184300D
:1004400009F43CC0823009F054C0442321F041300B
:1004500009F04FC00CC027B381E090E002C0880FC4
:10046000991F6A95E2F78095822387BB089527B389
:1004700081E090E002C0880F991F6A95E2F7282B6F
:1004800027BB0895442319F0413099F50CC024B3DB
:1004900081E090E002C0880F991F6A95E2F780958D
:1004A000822384BB089524B381E090E002C0880FCA
:1004B000991F6A95E2F7282B24BB0895442319F06D
:1004C0004130B9F40CC021B381E090E002C0880F44
:1004D000991F6A95E2F78095822381BB089521B325
:1004E00081E090E002C0880F991F6A95E2F7282BFF
:1004F00021BB0895882321F481E067E040E004C037
:10050000813041F467E041E00E943D0183E062E018
:1005100040E00AC0823059F481E067E040E00E9488
:100520003D0183E062E041E00E943D010895833097
:1005300051F481E067E041E00E943D0183E062E028
:1005400041E00E943D010895EF92FF920F931F93A7
:10055000CF93DF93EA010E946303009719F420E030
:1005600030E01DC0019660E670E00E9463037C01EC
:1005700083E090E0E80EF91EC70162E270E00E949D
:1005800031038C010E191F09CE01B701A8010E9489
:1005900054030C0F1D1FF801108221E030E0C90147
:1005A000DF91CF911F910F91FF90EF900895DB01A4
:1005B0000D900020E9F71197A61BB70B4A2F50E0CA
:1005C0000E943C0320E030E0892B11F421E030E070
:1005D000C90108950E941403089597FB092E072668
:1005E0000AD077FD04D00CD006D000201AF4709504
:1005F00061957F4F0895F6F7909581959F4F0895E7
:10060000AA1BBB1B51E107C0AA1FBB1FA617B70738
:1006100010F0A61BB70B881F991F5A95A9F7809554
:100620009095BC01CD010895FC0188279927E89495
:1006300021912032E9F3293010F02E30C8F32B320B
:1006400039F02D3231F4689403C057D0820F911DD8
:10065000219120532A30C8F31EF4909581959F4F25
:100660000895FC018191861721F08823D9F79927F5
:1006700008953197CF010895FB01DC0141505040AE
:1006800088F08D9181341CF08B350CF4805E619183
:1006900061341CF06B350CF4605E861B611171F3E4
:1006A000990B0895881BFCCFFB01DC0141505040A1
:1006B00048F001900D920020C9F701C01D924150F1
:1006C0005040E0F70895FB0151915523A9F0BF0177
:1006D000DC014D9145174111E1F759F4CD0101902D
:1006E000002049F04D9140154111C9F3FB01411122
:1006F000EFCF81E090E0019708957AE0979F902DE9
:0E070000879F802D910D11240895F894FFCF4E
:04070E00223A00008B
:00000001FF
